:1000000067EF05F000000000AFEF05F00000000012
:0A0010000000000000000000F3D71C
:10001C000401376B1E0E716E0401400E096F5B0EEE
:10002C000A6F040E0B6F880E086F9B0E0E6F040E7A
:0A003C000F6F0D6B400E0C6F1200E9
:1000460004012A6B14EE9BF024EE18F0010E2A5DD3
:1000560004E2E6CFDEFF2A2BF9D7010E3E6F3F6B97
:02006600120086
:1000680004012A6B14EE20F024EE18F0020E2A5D2B
:1000780004E2E6CFDEFF2A2BF9D7020E3E6F3F6B74
:02008800120064
:10008A000401010E135D04E0030E135D0EE016D0A9
:10009A00000E125D04E0010E125D06E00FD0020EA2
:1000AA00396F23EC00F00AD009D0000E125D01E08E
:1000BA0005D0020E396F34EC00F000D0180E3A6FFA
:0800CA00040E3B6F3493120099
:1000D2000401020E135D04E0030E135D0CE016D062
:1000E200000E125D01E012D0020E396F5B0E3C6F02
:1000F200040E3D6F0BD0000E125D01E007D0020E20
:0E010200396F200E3C6F040E3D6F00D01200CE
:100110000401010E396F716A726A736A746A756AD2
:10012000766A776A786A796A7A6A7B6A7C6A7D6AB3
:100130007E6A7F6A326B336B12C431F4125103E171
:10014000050E306F04D0060E306F0EEC00F012007A
:100150000401800E10634FD0135103082FE0135198
:1001600002080EE01351010801E044D0010E396F7E
:10017000BA0E3A6F0B0E3B6F120E3E6F3F6B3AD0CA
:10018000010E396F450EE16E040EE26E1245E12656
:10019000000EE222E6CF3AF4E7CF3BF4F86AF76AC2
:1001A000040E3A25F66E3B51F7220900F5CF3EF4D6
:1001B00009000A00F5CF3FF40A001CD0010E396F88
:1001C000020E126502D0030E126F490EE16E040E8C
:1001D000E26E1245E126000EE222E6CF3AF4E7CFC6
:1001E0003BF43AC4F6FF3BC4F7FF0800F5503E6FFE
:0801F0003F6B00D034831200C4
:1001F8000401010E125D0CE110511F0B000808E10B
:10020800010E396F030E115D02E1348101D0349182
:10021800000E125D37E110511F0B020833E1145133
:100228000F0B00082FE0010E396F14510F0B080D4A
:10023800F350296B000F286F040E29231451800BEB
:1002480001E0010E040DF35028253C6F000E292112
:100258003D6F030E115D07E1840E3CC4E1FF3DC410
:10026800E2FFE76E0FD014AF07D0000E3CC4E1FFE9
:100278003DC4E2FFE76E06D0880E3CC4E1FF3DC4F2
:06028800E2FFE76E120028
:10028E000401186B196B10511F0B020812E010516C
:10029E001F0B01080BE010511F0B000801E029D0C5
:1002AE00010E396F34A101D0188323D0010E396F9E
:1002BE0020D0010E396F14510F0B080DF350296B1E
:1002CE00000F286F040E29231451800B01E0010E3C
:1002DE00040DF35028253C6F000E29213D6F3CC4C0
:1002EE00E1FF3DC4E2FFE750040B02E0010E186F80
:1002FE0000D0010E396309E1180E3A6F040E3B6F00
:0C030E003493020E3E6F3F6B00D01200D3
:10031A000401080E3E5D000E3F5905E23EC440F45A
:10032A003FC441F404D0080E406F000E416F04939D
:10033A0004914151030B041340C405F440513E5F3C
:10034A0041513F5B180E3C6F040E3D6F34A319D028
:10035A003AC4F6FF3BC4F7FFF86A3CC4E1FF3DC468
:10036A00E2FF4051411105E1F6CF3AF4F7CF3BF4F1
:10037A001ED00900F5CFE6FF0900400701E2410758
:10038A00F0D73AC4E1FF3BC4E2FF3CC4D9FF3DC405
:10039A00DAFF4051411105E1E1CF3AF4E2CF3BF4F3
:1003AA0006D0E6CFDEFF400701E24107F2D712008E
:1003BA000401020E135D04E0030E135D15E01CD068
:1003CA00000E125D01E018D02A6B14EE5BF024EEE9
:1003DA009BF0010E2A5D04E2E6CFDEFF2A2BF9D755
:1003EA00010E3E6F3F6B08D0000E125D01E004D093
:0A03FA00020E3E6F3F6B00D01200B0
:100404000401000E386F080E016F100E026F040E07
:0C041400036F880E006F000E046F1200D2
:1004200004011051600BE842E842E842E842E84229
:10043000000858E111510C0854E01151070851E02F
:1004400011510B0843E011510A0832E01151030821
:100450002CE01151010829E01151000823E011514D
:10046000080815E0115109080FE01151060809E0CC
:100470001151050801E036D0010E396F040E306FBE
:1004800031D0A8EC00F02ED088EC00F02BD0010E7B
:10049000396F310E3A6F040E3A6F3493010E3E6F8E
:1004A0003F6B20D047EC01F01DD0FCEC00F01AD0DF
:1004B000010E396F14513A6F3B6B320E3A27040E1E
:1004C0003B233493010E3E6F3F6B0CD0010E396F0E
:1004D000E26A320E1425E16E040EE22212C4E7FF36
:0604E00001D000D0120063
:1004E600040110511F0B010870E1145100086DE161
:1004F6001151060801E027D01351210807E01351D6
:10050600220811E0135123081BE01BD0020E396F9D
:10051600010E316304D0020E3A6F0C0E3B6F090ECA
:100526003E6F3F6B0ED0020E396F010E316307D05E
:10053600300E3A6F0C0E3B6F2F0E3E6F3F6B01D0A5
:1005460000D0348300D01051600BE842E842E84204
:10055600E842E842010839E111510B0831E0115136
:10056600030823E011510A081BE0115102080DE0AF
:100576001151090807E01151010801E026D045ECA8
:1005860000F023D069EC00F020D0020E396F350E52
:100596003A6F040E3B6F3493010E3E6F3F6B15D0DE
:1005A600020E396F1351356F10D0020E396F360EA9
:1005B6003A6F040E3B6F3493010E3E6F3F6B05D0CE
:0C05C600020E396F1251366F00D0120087
:1005D2000401000E39630AD0080E016F100E026F7B
:1005E200040E036F840E006F046F2CD010AF1CD06A
:1005F2003E51165D3F51175904E216C43EF417C42A
:100602003FF48DEC01F0010E386F080E016F100EF1
:10061200026F040E036F800E006F180E066F040E39
:10062200076FC80E046F0ED0020E386F056BC80E2E
:10063200046F080E016F180E026F040E036FC80ECE
:0A064200006F00D06D9800D0120088
:10064C000401030E0015436F01C442F442513E27CE
:10065C0043513F23180E3A6F040E3B6F3AC4E1FF2F
:10066C003BC4E2FF3CC4D9FF3DC4DAFF4251431105
:10067C0005E1E1CF3AF4E2CF3BF406D0E6CFDEFF62
:0A068C00420701E24307F2D7120013
:100696000401376B08BF1BD009512C6502D009C471
:1006A6002CF4376B14EE5BF02DC4D9FF2EC4DAFFA1
:1006B6002C51375D04E2E6CFDEFF372BF9D7400E2B
:1006C600096F400E0817087D880E081300D03751B1
:0206D600120010
:1006D8000401000E386F000E396F3E6B3F6B10EC53
:1006E80002F0000E396302D073EC02F0E9EC02F07C
:0206F8001200EE
:1006FA000401020E38630FD026EC03F0020E3963B0
:10070A0002D0DDEC01F000BD03D0C80E006F02D0AC
:0E071A00880E006F03D002EC02F000D0120037
:100728000401040E306309D012C46EFF6E5003E05A
:10073800050E306F02D0030E306F010E38630AD0F9
:100748008DEC01F004BD03D0C80E046F02D0880EF2
:0C075800046F03D002EC02F000D012008D
:1007640004017C0E6C142F6F080E2F6302D0C2EFAD
:1007740003F00C0E2F6302D0CCEF03F0CDEF03F0A7
:1007840057C42DF458C42EF4010E2C6F4BEC03F017
:08079400446F01D000D01200F7
:10079C0004017C0E6C142F6F000E2F6302D0DEEF61
:1007AC0003F0040E2F6302D0EAEF03F0EDEF03F039
:1007BC0000513C0BE842E8420D0803E16CEC03F0FD
:1007CC0002D07DEC03F003D094EC03F000D01200C7
:1007DC0004016A6A686A9F0E6B6E3B0E696E6E6AE4
:1007EC00716A726A736A746A756A766A776A786A09
:1007FC00796A7A6A7B6A7C6A7D6A7E6A7F6A160E7F
:10080C00706E68A602D06896FCD76D9802EC02F068
:0A081C003491316B030E306F1200AF
:0A08260004016D92699468941200B9
:100830001A0E0C6EF80E0D6E0D2EFED70C2EFCD778
:0408400000001200A2
:0A0844000401698468986D821200B7
:06084E0004016892120093
:10085400040170A003D002EC02F07090689A1200B8
:060864000401689C120073
:10086A0004016DB61200140E6F6E000E306F346BF9
:10087A00316B6D6A696A6D86010E306F18EC04F08F
:10088A006DBA06D0686A696A69806988020E306F33
:02089A0012004A
:10089C000B0E0B6E260E0C6E5D0E0D6E0D2EFED716
:0E08AC000C2EFCD70B2EFAD700000000120015
:1008BA0004010CBFFED7400E2C6502D0400E2C6FEF
:1008CA002A6B2DC4E1FF2EC4E2FF24EE9BF02C51CB
:1008DA002A5D04E2E6CFDEFF2A2BF9D704012CC4F5
:0E08EA000DF4400E0C170C7D880E0C1312003E
:1008F80004016DA612006D6A696A000E306F12005D
:10090800E9CF51F4EACF52F4E1CF53F4E2CF54F4F3
:10091800D9CF55F4DACF56F40401000E306301D074
:1009280033D069A404D068A402D013EC04F06DB2EB
:100938002BD069A004D068A002D0EEEC03F069A81F
:1009480004D068A802D022EC04F069AC04D068ACEA
:1009580002D032EC04F069AA04D068AA02D02AECCA
:1009680004F069A204D068A202D027EC04F0030EB8
:10097800306101D009D069A607D068A605D0CEECB1
:1009880003F0B2EC03F0689656C4DAFF55C4D9FFF9
:1009980054C4E2FF53C4E1FF52C4EAFF51C4E9FF63
:0209A80012003B
:1009AA00F26AF50EF16EC00EF06ED09E9D6AA06AD4
:1009BA009E6AA16A0F0EC112070EB412FF0E926E42
:1009CA00FF0E936EFF0E946E956A070E966E896AF5
:0A09DA008A6A8B6A8C6A8D6A12002B
:1009E400E0CF14F0A09A0401060E306101D008D0C3
:1009F4006DB206D0445304E044C400F0446B03D009
:0E0A0400006A446B00D0A08A1450E06E12000D
:100A1200E0CF14F004EE00F0050EEE6AEA62FDD7B4
:100A22004EEC04F00401DE0E456F0B0E466FDE0E37
:100A3200476F0B0E486F530E496F0D0E4A6FEE0E45
:100A42004B6F0C0E4C6F8E0E4D6F0C0E4E6F5B0E7D
:100A52004F6F0D0E506FA2C057F4A3C058F4A4C03C
:100A620059F4A5C05AF435EC04F0A19AA08AF28C8C
:080A7200F28E1450E06E120038
:100A7A0004010CAF02D0006A1200A09AA2C02DF4A1
:100A8A00A3C02EF4A4C02CF413DFA08A010E006EBA
:020A9A00120048
:100A9C00A0AA05D0A1AA03D084EC04F0A19A12005C
:100AAC00E0CF14F07CEC04F0A19AA09A1450E06E04
:020ABC00120026
:100ABE000900F5CFE6FF0006FBE10106F9E11200A1
:100ACE006DDF610E0001A26F000EA36F210EA46FE9
:100ADE00000EA56F97DF0B0E0B6E260E0C6E5D0EC5
:100AEE000D6E0D2EFED70C2EFCD70B2EFAD7000056
:100AFE0000000B0E0B6E260E0C6E5D0E0D6E0D2E87
:100B0E00FED70C2EFCD70B2EFAD70000000063DFA9
:100B1E0000C020F0A16B2050A15D18E2610EE96EBD
:100B2E00000EEA6EA151E926D8B0EA2AEECF21F0E6
:100B3E000001210EA26F000EA36F010EA46F96DFAF
:100B4E00005201E1F5D70001A12BE5D7E0D7FFD781
:100B5E0000C015F0D9CF1EF0DACF1FF0E1CF1CF098
:100B6E00E2CF1DF0E9CF1AF0EACF1BF0F5CF19F066
:100B7E00F8CF16F0F7CF17F0F6CF18F088DF19C0C0
:100B8E00F5FF16C0F8FF17C0F7FF18C0F6FF15C027
:100B9E0000F01AC0E9FF1BC0EAFF1CC0E1FF1DC038
:0C0BAE00E2FF1EC0D9FF1FC0DAFF1100DB
:100BBA00120001000000020000000000000008000E
:100BCA0034001200010000000100000001000200D0
:100BDA0000000100090002002900000001000100D4
:100BEA000000A0003200090004000000000002001A
:100BFA0003000000000000000900210001000100BC
:100C0A000000010022002F000000070005008100FB
:100C1A000300400000000100070005000100030076
:100C2A004000000001000600A000FF0009000100CA
:100C3A00A1000100090003001500000026000000C1
:100C4A00FF007500080095000100810002000900FC
:100C5A0004001500000026000000FF0075000800CF
:100C6A00950001009100020009000500150000002E
:100C7A0026000000FF007500080095000200B10080
:040C8A000200C000A4
:100C8E00300003006D000000690000006B000000E2
:100C9E00720000006F000000430000002000000002
:100CAE004800000049000000440000002000000041
:100CBE004C0000006900000062000000720000009D
:100CCE0061000000720000007900000020000000AA
:100CDE007400000065000000730000007400000046
:100CEE00220003006D000000690000006B00000090
:100CFE00720000006F000000450000006C00000054
:100D0E00650000006B00000074000000720000001F
:100D1E006F0000006E000000690000006B00000014
:040D2E006100000060
:100D32004D494B524F456C656B74726F6E696B61B6
:100D420020436F6D70696C657273204552200D0AE5
:010D520000A0
:080D5300040003000900040084
:040D5B00020003008F
:020000040030CA
:0E000000210E2E1EFF8181FF0FC00FE00F406A
:00000001FF
